{
  "contractName": "SurveyStorage",
  "abi": [
    {
      "constant": false,
      "inputs": [],
      "name": "renounceOwnership",
      "outputs": [],
      "payable": false,
      "stateMutability": "nonpayable",
      "type": "function"
    },
    {
      "constant": true,
      "inputs": [
        {
          "name": "",
          "type": "uint256"
        }
      ],
      "name": "surveys",
      "outputs": [
        {
          "name": "surveyCreator",
          "type": "address"
        },
        {
          "name": "question",
          "type": "string"
        },
        {
          "name": "answer1",
          "type": "string"
        },
        {
          "name": "answer2",
          "type": "string"
        }
      ],
      "payable": false,
      "stateMutability": "view",
      "type": "function"
    },
    {
      "constant": true,
      "inputs": [],
      "name": "owner",
      "outputs": [
        {
          "name": "",
          "type": "address"
        }
      ],
      "payable": false,
      "stateMutability": "view",
      "type": "function"
    },
    {
      "constant": true,
      "inputs": [],
      "name": "isOwner",
      "outputs": [
        {
          "name": "",
          "type": "bool"
        }
      ],
      "payable": false,
      "stateMutability": "view",
      "type": "function"
    },
    {
      "constant": false,
      "inputs": [
        {
          "name": "newOwner",
          "type": "address"
        }
      ],
      "name": "transferOwnership",
      "outputs": [],
      "payable": false,
      "stateMutability": "nonpayable",
      "type": "function"
    },
    {
      "inputs": [],
      "payable": false,
      "stateMutability": "nonpayable",
      "type": "constructor"
    },
    {
      "anonymous": false,
      "inputs": [
        {
          "indexed": false,
          "name": "message",
          "type": "string"
        },
        {
          "indexed": false,
          "name": "question",
          "type": "string"
        },
        {
          "indexed": false,
          "name": "answer1",
          "type": "string"
        },
        {
          "indexed": false,
          "name": "answer2",
          "type": "string"
        }
      ],
      "name": "NewSurvey",
      "type": "event"
    },
    {
      "anonymous": false,
      "inputs": [
        {
          "indexed": true,
          "name": "previousOwner",
          "type": "address"
        },
        {
          "indexed": true,
          "name": "newOwner",
          "type": "address"
        }
      ],
      "name": "OwnershipTransferred",
      "type": "event"
    },
    {
      "constant": false,
      "inputs": [
        {
          "name": "_question",
          "type": "string"
        },
        {
          "name": "_answer1",
          "type": "string"
        },
        {
          "name": "_answer2",
          "type": "string"
        }
      ],
      "name": "createNewSurvey",
      "outputs": [],
      "payable": false,
      "stateMutability": "nonpayable",
      "type": "function"
    },
    {
      "constant": true,
      "inputs": [],
      "name": "retrieveSurveyQuestion",
      "outputs": [
        {
          "name": "",
          "type": "string"
        }
      ],
      "payable": false,
      "stateMutability": "view",
      "type": "function"
    },
    {
      "constant": true,
      "inputs": [],
      "name": "retrieveSurveyAnswer1",
      "outputs": [
        {
          "name": "",
          "type": "string"
        }
      ],
      "payable": false,
      "stateMutability": "view",
      "type": "function"
    },
    {
      "constant": true,
      "inputs": [],
      "name": "retrieveSurveyAnswer2",
      "outputs": [
        {
          "name": "",
          "type": "string"
        }
      ],
      "payable": false,
      "stateMutability": "view",
      "type": "function"
    }
  ],
  "bytecode": "0x608060405234801561001057600080fd5b5060008054600160a060020a0319163317808255604051600160a060020a039190911691907f8be0079c531659141344cd1fd0a4f28419497f9722a3daafe3b4186f6b6457e0908290a3610f4f806100696000396000f3fe608060405260043610610092577c010000000000000000000000000000000000000000000000000000000060003504631086a3998114610097578063715018a61461012157806378c915051461013857806386e68b901461014d5780638da5cb5b146102d45780638f32d59b14610305578063bd1b40661461032e578063ceb2d3b014610343578063f2fde38b14610504575b600080fd5b3480156100a357600080fd5b506100ac610537565b6040805160208082528351818301528351919283929083019185019080838360005b838110156100e65781810151838201526020016100ce565b50505050905090810190601f1680156101135780820380516001836020036101000a031916815260200191505b509250505060405180910390f35b34801561012d57600080fd5b506101366105ea565b005b34801561014457600080fd5b506100ac61069f565b34801561015957600080fd5b506101776004803603602081101561017057600080fd5b503561072b565b6040518085600160a060020a0316600160a060020a03168152602001806020018060200180602001848103845287818151815260200191508051906020019080838360005b838110156101d45781810151838201526020016101bc565b50505050905090810190601f1680156102015780820380516001836020036101000a031916815260200191505b50848103835286518152865160209182019188019080838360005b8381101561023457818101518382015260200161021c565b50505050905090810190601f1680156102615780820380516001836020036101000a031916815260200191505b50848103825285518152855160209182019187019080838360005b8381101561029457818101518382015260200161027c565b50505050905090810190601f1680156102c15780820380516001836020036101000a031916815260200191505b5097505050505050505060405180910390f35b3480156102e057600080fd5b506102e9610912565b60408051600160a060020a039092168252519081900360200190f35b34801561031157600080fd5b5061031a610921565b604080519115158252519081900360200190f35b34801561033a57600080fd5b506100ac610932565b34801561034f57600080fd5b506101366004803603606081101561036657600080fd5b81019060208101813564010000000081111561038157600080fd5b82018360208201111561039357600080fd5b803590602001918460018302840111640100000000831117156103b557600080fd5b91908080601f016020809104026020016040519081016040528093929190818152602001838380828437600092019190915250929594936020810193503591505064010000000081111561040857600080fd5b82018360208201111561041a57600080fd5b8035906020019184600183028401116401000000008311171561043c57600080fd5b91908080601f016020809104026020016040519081016040528093929190818152602001838380828437600092019190915250929594936020810193503591505064010000000081111561048f57600080fd5b8201836020820111156104a157600080fd5b803590602001918460018302840111640100000000831117156104c357600080fd5b91908080601f0160208091040260200160405190810160405280939291908181526020018383808284376000920191909152509295506109b1945050505050565b34801561051057600080fd5b506101366004803603602081101561052757600080fd5b5035600160a060020a0316610ccf565b60606001600081548110151561054957fe5b6000918252602091829020600360049092020101805460408051601f60026000196101006001871615020190941693909304928301859004850281018501909152818152928301828280156105df5780601f106105b4576101008083540402835291602001916105df565b820191906000526020600020905b8154815290600101906020018083116105c257829003601f168201915b505050505090505b90565b6105f2610921565b1515610648576040805160e560020a62461bcd02815260206004820181905260248201527f4f776e61626c653a2063616c6c6572206973206e6f7420746865206f776e6572604482015290519081900360640190fd5b60008054604051600160a060020a03909116907f8be0079c531659141344cd1fd0a4f28419497f9722a3daafe3b4186f6b6457e0908390a36000805473ffffffffffffffffffffffffffffffffffffffff19169055565b6060600160008154811015156106b157fe5b90600052602060002090600402016001018054600181600116156101000203166002900480601f0160208091040260200160405190810160405280929190818152602001828054600181600116156101000203166002900480156105df5780601f106105b4576101008083540402835291602001916105df565b600180548290811061073957fe5b600091825260209182902060049091020180546001808301805460408051601f6002600019968516156101000296909601909316949094049182018790048702840187019052808352600160a060020a0390931695509293909291908301828280156107e65780601f106107bb576101008083540402835291602001916107e6565b820191906000526020600020905b8154815290600101906020018083116107c957829003601f168201915b50505060028085018054604080516020601f60001961010060018716150201909416959095049283018590048502810185019091528181529596959450909250908301828280156108785780601f1061084d57610100808354040283529160200191610878565b820191906000526020600020905b81548152906001019060200180831161085b57829003601f168201915b5050505060038301805460408051602060026001851615610100026000190190941693909304601f81018490048402820184019092528181529495949350908301828280156109085780601f106108dd57610100808354040283529160200191610908565b820191906000526020600020905b8154815290600101906020018083116108eb57829003601f168201915b5050505050905084565b600054600160a060020a031690565b600054600160a060020a0316331490565b60606001600081548110151561094457fe5b600091825260209182902060026004909202018101805460408051601f6000196101006001861615020190931694909404918201859004850284018501905280835291929091908301828280156105df5780601f106105b4576101008083540402835291602001916105df565b6040805160808101825233815260208082018681529282018590526060820184905260018054808201808355600092835284517fb10e2d527612073b26eecdfd717e6a320cf44b4afac2b0732d9fcbe2b7fa0cf66004909302928301805473ffffffffffffffffffffffffffffffffffffffff1916600160a060020a039092169190911781559551805193969195949193610a73937fb10e2d527612073b26eecdfd717e6a320cf44b4afac2b0732d9fcbe2b7fa0cf701929190910190610e8b565b5060408201518051610a8f916002840191602090910190610e8b565b5060608201518051610aab916003840191602090910190610e8b565b50505060019081016000818152600360209081526040808320805473ffffffffffffffffffffffffffffffffffffffff19163390811790915583526002909152902054909250610b009163ffffffff610d3916565b6002600033600160a060020a0316600160a060020a03168152602001908152602001600020819055507f924c0f6a3de37b076de7677ef3a2ee08691c6b11650e2c4ba2661a42ed0f98de84848460405180806020018060200180602001806020018581038552601c8152602001807f5375727665792063726561746564207375636365737366756c6c792100000000815250602001858103845288818151815260200191508051906020019080838360005b83811015610bca578181015183820152602001610bb2565b50505050905090810190601f168015610bf75780820380516001836020036101000a031916815260200191505b50858103835287518152875160209182019189019080838360005b83811015610c2a578181015183820152602001610c12565b50505050905090810190601f168015610c575780820380516001836020036101000a031916815260200191505b50858103825286518152865160209182019188019080838360005b83811015610c8a578181015183820152602001610c72565b50505050905090810190601f168015610cb75780820380516001836020036101000a031916815260200191505b5097505050505050505060405180910390a150505050565b610cd7610921565b1515610d2d576040805160e560020a62461bcd02815260206004820181905260248201527f4f776e61626c653a2063616c6c6572206973206e6f7420746865206f776e6572604482015290519081900360640190fd5b610d3681610d9d565b50565b600082820183811015610d96576040805160e560020a62461bcd02815260206004820152601b60248201527f536166654d6174683a206164646974696f6e206f766572666c6f770000000000604482015290519081900360640190fd5b9392505050565b600160a060020a0381161515610e23576040805160e560020a62461bcd02815260206004820152602660248201527f4f776e61626c653a206e6577206f776e657220697320746865207a65726f206160448201527f6464726573730000000000000000000000000000000000000000000000000000606482015290519081900360840190fd5b60008054604051600160a060020a03808516939216917f8be0079c531659141344cd1fd0a4f28419497f9722a3daafe3b4186f6b6457e091a36000805473ffffffffffffffffffffffffffffffffffffffff1916600160a060020a0392909216919091179055565b828054600181600116156101000203166002900490600052602060002090601f016020900481019282601f10610ecc57805160ff1916838001178555610ef9565b82800160010185558215610ef9579182015b82811115610ef9578251825591602001919060010190610ede565b50610f05929150610f09565b5090565b6105e791905b80821115610f055760008155600101610f0f56fea165627a7a72305820d3ccce711e1374497d116e80cd4d117ae2e7da142b75b3bcdb812e00d12b272c0029",
  "source": "pragma solidity >=0.4.21 <0.6.0;\n\nimport \"../node_modules/@openzeppelin/contracts/ownership/Ownable.sol\";\nimport \"../node_modules/@openzeppelin/contracts/math/SafeMath.sol\";\n\ncontract SurveyStorage is Ownable{\n\n    using SafeMath for uint256;\n\n    event NewSurvey(string message, string question, string answer1, string answer2);\n\n    struct Survey {\n        address surveyCreator;\n        string question;\n        string answer1;\n        string answer2;\n\n        //Note: String arrays are not currently supported by Solidity,\n        //so I will hash the answers and save them as uint. When attempting save them, use the keccak256(abi.encodePacked(\"String here\") hash,\n        //and to display them you need to convert them back to strings.\n    }\n\n    Survey[] public surveys;\n    mapping (address => uint) ownerSurveyCount;\n    mapping (uint => address) surveyToOwner;\n\n    constructor() public {\n    }\n\n    function createNewSurvey(string memory _question, string memory _answer1, string memory _answer2) public {\n\n        uint surveyId = surveys.push(Survey(msg.sender, _question, _answer1, _answer2)) + 1;\n        surveyToOwner[surveyId] = msg.sender;\n        ownerSurveyCount[msg.sender] = ownerSurveyCount[msg.sender].add(1);\n\n        emit NewSurvey(\"Survey created successfully!\", _question, _answer1, _answer2);\n    }\n\n    function retrieveSurveyQuestion() public view returns (string memory) {\n        return surveys[0].question;\n    }\n\n    function retrieveSurveyAnswer1() public view returns (string memory) {\n        return surveys[0].answer1;\n    }\n\n    function retrieveSurveyAnswer2() public view returns (string memory) {\n        return surveys[0].answer2;\n    }\n\n}\n",
  "sourcePath": "C:/Users/Shawn/Desktop/Blockchain/portis-react-survey/contracts/SurveyStorage.sol",
  "compiler": {
    "name": "solc",
    "version": "0.5.1+commit.c8a2cb62.Emscripten.clang"
  },
  "schemaVersion": "3.0.14",
  "updatedAt": "2019-09-05T15:52:05.313Z",
  "devdoc": {
    "methods": {
      "isOwner()": {
        "details": "Returns true if the caller is the current owner."
      },
      "owner()": {
        "details": "Returns the address of the current owner."
      },
      "renounceOwnership()": {
        "details": "Leaves the contract without owner. It will not be possible to call `onlyOwner` functions anymore. Can only be called by the current owner.     * > Note: Renouncing ownership will leave the contract without an owner, thereby removing any functionality that is only available to the owner."
      },
      "transferOwnership(address)": {
        "details": "Transfers ownership of the contract to a new account (`newOwner`). Can only be called by the current owner."
      }
    }
  },
  "userdoc": {
    "methods": {}
  }
}